{
  "contractName": "KYCContract",
  "abi": [
    {
      "inputs": [],
      "payable": false,
      "stateMutability": "nonpayable",
      "type": "constructor"
    },
    {
      "anonymous": false,
      "inputs": [
        {
          "indexed": false,
          "internalType": "string",
          "name": "name",
          "type": "string"
        },
        {
          "indexed": false,
          "internalType": "address",
          "name": "ethAddress",
          "type": "address"
        },
        {
          "indexed": false,
          "internalType": "uint256",
          "name": "KYC_count",
          "type": "uint256"
        },
        {
          "indexed": false,
          "internalType": "string",
          "name": "regNumber",
          "type": "string"
        },
        {
          "indexed": false,
          "internalType": "uint256",
          "name": "report",
          "type": "uint256"
        }
      ],
      "name": "bankDetails",
      "type": "event"
    },
    {
      "constant": true,
      "inputs": [
        {
          "internalType": "address",
          "name": "",
          "type": "address"
        }
      ],
      "name": "allBanks",
      "outputs": [
        {
          "internalType": "string",
          "name": "name",
          "type": "string"
        },
        {
          "internalType": "address",
          "name": "ethAddress",
          "type": "address"
        },
        {
          "internalType": "uint256",
          "name": "report",
          "type": "uint256"
        },
        {
          "internalType": "uint256",
          "name": "KYC_count",
          "type": "uint256"
        },
        {
          "internalType": "bool",
          "name": "kycPermission",
          "type": "bool"
        },
        {
          "internalType": "string",
          "name": "regNumber",
          "type": "string"
        }
      ],
      "payable": false,
      "stateMutability": "view",
      "type": "function"
    },
    {
      "constant": true,
      "inputs": [
        {
          "internalType": "uint256",
          "name": "",
          "type": "uint256"
        }
      ],
      "name": "allCustomers",
      "outputs": [
        {
          "internalType": "string",
          "name": "uname",
          "type": "string"
        },
        {
          "internalType": "string",
          "name": "dataHash",
          "type": "string"
        },
        {
          "internalType": "bool",
          "name": "kycStatus",
          "type": "bool"
        },
        {
          "internalType": "uint256",
          "name": "downvotes",
          "type": "uint256"
        },
        {
          "internalType": "uint256",
          "name": "upvotes",
          "type": "uint256"
        },
        {
          "internalType": "address",
          "name": "bank",
          "type": "address"
        }
      ],
      "payable": false,
      "stateMutability": "view",
      "type": "function"
    },
    {
      "constant": true,
      "inputs": [
        {
          "internalType": "uint256",
          "name": "",
          "type": "uint256"
        }
      ],
      "name": "allRequests",
      "outputs": [
        {
          "internalType": "string",
          "name": "uname",
          "type": "string"
        },
        {
          "internalType": "address",
          "name": "bankAddress",
          "type": "address"
        },
        {
          "internalType": "string",
          "name": "customerDataHash",
          "type": "string"
        }
      ],
      "payable": false,
      "stateMutability": "view",
      "type": "function"
    },
    {
      "constant": false,
      "inputs": [
        {
          "internalType": "string",
          "name": "name",
          "type": "string"
        },
        {
          "internalType": "address",
          "name": "bankAddress",
          "type": "address"
        },
        {
          "internalType": "string",
          "name": "bankRegNum",
          "type": "string"
        }
      ],
      "name": "addBank",
      "outputs": [
        {
          "internalType": "bool",
          "name": "",
          "type": "bool"
        }
      ],
      "payable": true,
      "stateMutability": "payable",
      "type": "function"
    },
    {
      "constant": false,
      "inputs": [
        {
          "internalType": "address",
          "name": "bankAddress",
          "type": "address"
        }
      ],
      "name": "removeBank",
      "outputs": [
        {
          "internalType": "bool",
          "name": "",
          "type": "bool"
        }
      ],
      "payable": true,
      "stateMutability": "payable",
      "type": "function"
    },
    {
      "constant": false,
      "inputs": [
        {
          "internalType": "address",
          "name": "bankAddress",
          "type": "address"
        }
      ],
      "name": "modifyKycPermission",
      "outputs": [
        {
          "internalType": "bool",
          "name": "",
          "type": "bool"
        }
      ],
      "payable": true,
      "stateMutability": "payable",
      "type": "function"
    },
    {
      "constant": false,
      "inputs": [
        {
          "internalType": "string",
          "name": "Uname",
          "type": "string"
        },
        {
          "internalType": "string",
          "name": "customerDataHash",
          "type": "string"
        }
      ],
      "name": "addRequest",
      "outputs": [
        {
          "internalType": "uint256",
          "name": "",
          "type": "uint256"
        }
      ],
      "payable": true,
      "stateMutability": "payable",
      "type": "function"
    },
    {
      "constant": false,
      "inputs": [
        {
          "internalType": "string",
          "name": "Uname",
          "type": "string"
        },
        {
          "internalType": "string",
          "name": "customerDataHash",
          "type": "string"
        }
      ],
      "name": "removeRequest",
      "outputs": [
        {
          "internalType": "int256",
          "name": "",
          "type": "int256"
        }
      ],
      "payable": true,
      "stateMutability": "payable",
      "type": "function"
    },
    {
      "constant": false,
      "inputs": [
        {
          "internalType": "string",
          "name": "Uname",
          "type": "string"
        },
        {
          "internalType": "string",
          "name": "DataHash",
          "type": "string"
        }
      ],
      "name": "addCustomer",
      "outputs": [
        {
          "internalType": "int256",
          "name": "",
          "type": "int256"
        }
      ],
      "payable": true,
      "stateMutability": "payable",
      "type": "function"
    },
    {
      "constant": false,
      "inputs": [
        {
          "internalType": "string",
          "name": "Uname",
          "type": "string"
        }
      ],
      "name": "removeCustomer",
      "outputs": [
        {
          "internalType": "int256",
          "name": "",
          "type": "int256"
        }
      ],
      "payable": true,
      "stateMutability": "payable",
      "type": "function"
    },
    {
      "constant": false,
      "inputs": [
        {
          "internalType": "string",
          "name": "Uname",
          "type": "string"
        },
        {
          "internalType": "string",
          "name": "DataHash",
          "type": "string"
        }
      ],
      "name": "modifyCustomer",
      "outputs": [
        {
          "internalType": "uint256",
          "name": "",
          "type": "uint256"
        }
      ],
      "payable": true,
      "stateMutability": "payable",
      "type": "function"
    },
    {
      "constant": false,
      "inputs": [
        {
          "internalType": "string",
          "name": "Uname",
          "type": "string"
        }
      ],
      "name": "viewCustomer",
      "outputs": [
        {
          "internalType": "string",
          "name": "",
          "type": "string"
        }
      ],
      "payable": true,
      "stateMutability": "payable",
      "type": "function"
    },
    {
      "constant": false,
      "inputs": [
        {
          "internalType": "string",
          "name": "Uname",
          "type": "string"
        }
      ],
      "name": "upvoteCustomer",
      "outputs": [
        {
          "internalType": "uint256",
          "name": "",
          "type": "uint256"
        }
      ],
      "payable": true,
      "stateMutability": "payable",
      "type": "function"
    },
    {
      "constant": false,
      "inputs": [
        {
          "internalType": "string",
          "name": "Uname",
          "type": "string"
        }
      ],
      "name": "downvoteCustomer",
      "outputs": [
        {
          "internalType": "uint256",
          "name": "",
          "type": "uint256"
        }
      ],
      "payable": true,
      "stateMutability": "payable",
      "type": "function"
    },
    {
      "constant": true,
      "inputs": [
        {
          "internalType": "string",
          "name": "Uname",
          "type": "string"
        }
      ],
      "name": "getCustomerStatus",
      "outputs": [
        {
          "internalType": "bool",
          "name": "",
          "type": "bool"
        }
      ],
      "payable": false,
      "stateMutability": "view",
      "type": "function"
    },
    {
      "constant": false,
      "inputs": [
        {
          "internalType": "address",
          "name": "bankAddress",
          "type": "address"
        }
      ],
      "name": "addBankReport",
      "outputs": [
        {
          "internalType": "uint256",
          "name": "",
          "type": "uint256"
        }
      ],
      "payable": true,
      "stateMutability": "payable",
      "type": "function"
    },
    {
      "constant": true,
      "inputs": [
        {
          "internalType": "address",
          "name": "bankAddress",
          "type": "address"
        }
      ],
      "name": "getBankReport",
      "outputs": [
        {
          "internalType": "uint256",
          "name": "",
          "type": "uint256"
        }
      ],
      "payable": false,
      "stateMutability": "view",
      "type": "function"
    },
    {
      "constant": false,
      "inputs": [
        {
          "internalType": "address",
          "name": "bankAddress",
          "type": "address"
        }
      ],
      "name": "getBankDetails",
      "outputs": [],
      "payable": true,
      "stateMutability": "payable",
      "type": "function"
    }
  ],
  "bytecode": "0x608060405234801561001057600080fd5b50336000806101000a81548173ffffffffffffffffffffffffffffffffffffffff021916908373ffffffffffffffffffffffffffffffffffffffff160217905550600a6001819055506141fd806100686000396000f3fe6080604052600436106101095760003560e01c8063a0635f7e11610095578063eb6fbd2011610064578063eb6fbd2014610d5b578063f18c33d514610ec7578063f2f4ed8f14610fa7578063f72860ca14611076578063fc55ea9d146111dc57610109565b8063a0635f7e146108a9578063b9da4af814610a0f578063ccfa8e7114610b75578063d0e5706714610cff57610109565b80637554d36d116100dc5780637554d36d1461056e5780637d38d711146105d357806394ecafcc146106a25780639649650c146106fa5780639bf4ec2f1461075657610109565b8063107925bb1461010e57806315101e02146102425780633190abc01461028657806367377c05146103ec575b600080fd5b6101c76004803603602081101561012457600080fd5b810190808035906020019064010000000081111561014157600080fd5b82018360208201111561015357600080fd5b8035906020019184600183028401116401000000008311171561017557600080fd5b91908080601f016020809104026020016040519081016040528093929190818152602001838380828437600081840152601f19601f8201169050808301925050505050505091929192905050506112ab565b6040518080602001828103825283818151815260200191508051906020019080838360005b838110156102075780820151818401526020810190506101ec565b50505050905090810190601f1680156102345780820380516001836020036101000a031916815260200191505b509250505060405180910390f35b6102846004803603602081101561025857600080fd5b81019080803573ffffffffffffffffffffffffffffffffffffffff1690602001909291905050506114ab565b005b6103d66004803603604081101561029c57600080fd5b81019080803590602001906401000000008111156102b957600080fd5b8201836020820111156102cb57600080fd5b803590602001918460018302840111640100000000831117156102ed57600080fd5b91908080601f016020809104026020016040519081016040528093929190818152602001838380828437600081840152601f19601f8201169050808301925050505050505091929192908035906020019064010000000081111561035057600080fd5b82018360208201111561036257600080fd5b8035906020019184600183028401116401000000008311171561038457600080fd5b91908080601f016020809104026020016040519081016040528093929190818152602001838380828437600081840152601f19601f820116905080830192505050505050509192919290505050611853565b6040518082815260200191505060405180910390f35b3480156103f857600080fd5b5061043b6004803603602081101561040f57600080fd5b81019080803573ffffffffffffffffffffffffffffffffffffffff169060200190929190505050611ad1565b60405180806020018773ffffffffffffffffffffffffffffffffffffffff1673ffffffffffffffffffffffffffffffffffffffff1681526020018681526020018581526020018415151515815260200180602001838103835289818151815260200191508051906020019080838360005b838110156104c75780820151818401526020810190506104ac565b50505050905090810190601f1680156104f45780820380516001836020036101000a031916815260200191505b50838103825284818151815260200191508051906020019080838360005b8381101561052d578082015181840152602081019050610512565b50505050905090810190601f16801561055a5780820380516001836020036101000a031916815260200191505b509850505050505050505060405180910390f35b34801561057a57600080fd5b506105bd6004803603602081101561059157600080fd5b81019080803573ffffffffffffffffffffffffffffffffffffffff169060200190929190505050611c6a565b6040518082815260200191505060405180910390f35b61068c600480360360208110156105e957600080fd5b810190808035906020019064010000000081111561060657600080fd5b82018360208201111561061857600080fd5b8035906020019184600183028401116401000000008311171561063a57600080fd5b91908080601f016020809104026020016040519081016040528093929190818152602001838380828437600081840152601f19601f820116905080830192505050505050509192919290505050611d6b565b6040518082815260200191505060405180910390f35b6106e4600480360360208110156106b857600080fd5b81019080803573ffffffffffffffffffffffffffffffffffffffff169060200190929190505050611fbe565b6040518082815260200191505060405180910390f35b61073c6004803603602081101561071057600080fd5b81019080803573ffffffffffffffffffffffffffffffffffffffff169060200190929190505050612308565b604051808215151515815260200191505060405180910390f35b34801561076257600080fd5b5061078f6004803603602081101561077957600080fd5b8101908080359060200190929190505050612505565b60405180806020018473ffffffffffffffffffffffffffffffffffffffff1673ffffffffffffffffffffffffffffffffffffffff16815260200180602001838103835286818151815260200191508051906020019080838360005b838110156108055780820151818401526020810190506107ea565b50505050905090810190601f1680156108325780820380516001836020036101000a031916815260200191505b50838103825284818151815260200191508051906020019080838360005b8381101561086b578082015181840152602081019050610850565b50505050905090810190601f1680156108985780820380516001836020036101000a031916815260200191505b509550505050505060405180910390f35b6109f9600480360360408110156108bf57600080fd5b81019080803590602001906401000000008111156108dc57600080fd5b8201836020820111156108ee57600080fd5b8035906020019184600183028401116401000000008311171561091057600080fd5b91908080601f016020809104026020016040519081016040528093929190818152602001838380828437600081840152601f19601f8201169050808301925050505050505091929192908035906020019064010000000081111561097357600080fd5b82018360208201111561098557600080fd5b803590602001918460018302840111640100000000831117156109a757600080fd5b91908080601f016020809104026020016040519081016040528093929190818152602001838380828437600081840152601f19601f82011690508083019250505050505050919291929050505061268c565b6040518082815260200191505060405180910390f35b610b5f60048036036040811015610a2557600080fd5b8101908080359060200190640100000000811115610a4257600080fd5b820183602082011115610a5457600080fd5b80359060200191846001830284011164010000000083111715610a7657600080fd5b91908080601f016020809104026020016040519081016040528093929190818152602001838380828437600081840152601f19601f82011690508083019250505050505050919291929080359060200190640100000000811115610ad957600080fd5b820183602082011115610aeb57600080fd5b80359060200191846001830284011164010000000083111715610b0d57600080fd5b91908080601f016020809104026020016040519081016040528093929190818152602001838380828437600081840152601f19601f8201169050808301925050505050505091929192905050506128fd565b6040518082815260200191505060405180910390f35b610ce560048036036060811015610b8b57600080fd5b8101908080359060200190640100000000811115610ba857600080fd5b820183602082011115610bba57600080fd5b80359060200191846001830284011164010000000083111715610bdc57600080fd5b91908080601f016020809104026020016040519081016040528093929190818152602001838380828437600081840152601f19601f820116905080830192505050505050509192919290803573ffffffffffffffffffffffffffffffffffffffff16906020019092919080359060200190640100000000811115610c5f57600080fd5b820183602082011115610c7157600080fd5b80359060200191846001830284011164010000000083111715610c9357600080fd5b91908080601f016020809104026020016040519081016040528093929190818152602001838380828437600081840152601f19601f820116905080830192505050505050509192919290505050612bf4565b604051808215151515815260200191505060405180910390f35b610d4160048036036020811015610d1557600080fd5b81019080803573ffffffffffffffffffffffffffffffffffffffff169060200190929190505050612f60565b604051808215151515815260200191505060405180910390f35b348015610d6757600080fd5b50610d9460048036036020811015610d7e57600080fd5b810190808035906020019092919050505061315a565b604051808060200180602001871515151581526020018681526020018581526020018473ffffffffffffffffffffffffffffffffffffffff1673ffffffffffffffffffffffffffffffffffffffff168152602001838103835289818151815260200191508051906020019080838360005b83811015610e20578082015181840152602081019050610e05565b50505050905090810190601f168015610e4d5780820380516001836020036101000a031916815260200191505b50838103825288818151815260200191508051906020019080838360005b83811015610e86578082015181840152602081019050610e6b565b50505050905090810190601f168015610eb35780820380516001836020036101000a031916815260200191505b509850505050505050505060405180910390f35b348015610ed357600080fd5b50610f8d60048036036020811015610eea57600080fd5b8101908080359060200190640100000000811115610f0757600080fd5b820183602082011115610f1957600080fd5b80359060200191846001830284011164010000000083111715610f3b57600080fd5b91908080601f016020809104026020016040519081016040528093929190818152602001838380828437600081840152601f19601f820116905080830192505050505050509192919290505050613300565b604051808215151515815260200191505060405180910390f35b61106060048036036020811015610fbd57600080fd5b8101908080359060200190640100000000811115610fda57600080fd5b820183602082011115610fec57600080fd5b8035906020019184600183028401116401000000008311171561100e57600080fd5b91908080601f016020809104026020016040519081016040528093929190818152602001838380828437600081840152601f19601f82011690508083019250505050505050919291929050505061343c565b6040518082815260200191505060405180910390f35b6111c66004803603604081101561108c57600080fd5b81019080803590602001906401000000008111156110a957600080fd5b8201836020820111156110bb57600080fd5b803590602001918460018302840111640100000000831117156110dd57600080fd5b91908080601f016020809104026020016040519081016040528093929190818152602001838380828437600081840152601f19601f8201169050808301925050505050505091929192908035906020019064010000000081111561114057600080fd5b82018360208201111561115257600080fd5b8035906020019184600183028401116401000000008311171561117457600080fd5b91908080601f016020809104026020016040519081016040528093929190818152602001838380828437600081840152601f19601f820116905080830192505050505050509192919290505050613690565b6040518082815260200191505060405180910390f35b611295600480360360208110156111f257600080fd5b810190808035906020019064010000000081111561120f57600080fd5b82018360208201111561122157600080fd5b8035906020019184600183028401116401000000008311171561124357600080fd5b91908080601f016020809104026020016040519081016040528093929190818152602001838380828437600081840152601f19601f8201169050808301925050505050505091929192905050506138c1565b6040518082815260200191505060405180910390f35b60606000151561130b600360003373ffffffffffffffffffffffffffffffffffffffff1673ffffffffffffffffffffffffffffffffffffffff16815260200190815260200160002060000160405180602001604052806000815250613cdb565b151514611363576040517f08c379a00000000000000000000000000000000000000000000000000000000081526004018080602001828103825260448152602001806141636044913960600191505060405180910390fd5b60008090505b60028054905081101561146c5761139d6002828154811061138657fe5b906000526020600020906006020160000184613cdb565b1561146157600281815481106113af57fe5b90600052602060002090600602016001018054600181600116156101000203166002900480601f0160208091040260200160405190810160405280929190818152602001828054600181600116156101000203166002900480156114545780601f1061142957610100808354040283529160200191611454565b820191906000526020600020905b81548152906001019060200180831161143757829003601f168201915b50505050509150506114a6565b806001019050611369565b506040518060400160405280601f81526020017f437573746f6d6572206e6f7420666f756e6420696e206461746162617365210081525090505b919050565b60001515611509600360003373ffffffffffffffffffffffffffffffffffffffff1673ffffffffffffffffffffffffffffffffffffffff16815260200190815260200160002060000160405180602001604052806000815250613cdb565b151514611561576040517f08c379a00000000000000000000000000000000000000000000000000000000081526004018080602001828103825260448152602001806141636044913960600191505060405180910390fd5b7f960573cc2c577a8ec308919e980931d620a54f1a4041bb0b6a6d9f67bea8468f600360008373ffffffffffffffffffffffffffffffffffffffff1673ffffffffffffffffffffffffffffffffffffffff168152602001908152602001600020600001600360008473ffffffffffffffffffffffffffffffffffffffff1673ffffffffffffffffffffffffffffffffffffffff16815260200190815260200160002060010160009054906101000a900473ffffffffffffffffffffffffffffffffffffffff16600360008573ffffffffffffffffffffffffffffffffffffffff1673ffffffffffffffffffffffffffffffffffffffff16815260200190815260200160002060030154600360008673ffffffffffffffffffffffffffffffffffffffff1673ffffffffffffffffffffffffffffffffffffffff168152602001908152602001600020600501600360008773ffffffffffffffffffffffffffffffffffffffff1673ffffffffffffffffffffffffffffffffffffffff1681526020019081526020016000206002015460405180806020018673ffffffffffffffffffffffffffffffffffffffff1673ffffffffffffffffffffffffffffffffffffffff168152602001858152602001806020018481526020018381038352888181546001816001161561010002031660029004815260200191508054600181600116156101000203166002900480156117ba5780601f1061178f576101008083540402835291602001916117ba565b820191906000526020600020905b81548152906001019060200180831161179d57829003601f168201915b505083810382528581815460018160011615610100020316600290048152602001915080546001816001161561010002031660029004801561183d5780601f106118125761010080835404028352916020019161183d565b820191906000526020600020905b81548152906001019060200180831161182057829003601f168201915b505097505050505050505060405180910390a150565b60008015156118b2600360003373ffffffffffffffffffffffffffffffffffffffff1673ffffffffffffffffffffffffffffffffffffffff16815260200190815260200160002060000160405180602001604052806000815250613cdb565b15151461190a576040517f08c379a00000000000000000000000000000000000000000000000000000000081526004018080602001828103825260448152602001806141636044913960600191505060405180910390fd5b60008090505b60028054905081101561198d576119446002828154811061192d57fe5b906000526020600020906006020160000185613cdb565b801561197357506119726002828154811061195b57fe5b906000526020600020906006020160010184613cdb565b5b15611982576000915050611acb565b806001019050611910565b50600280548091906001016119a29190613e1a565b506040518060c0016040528084815260200183815260200160001515815260200160008152602001600081526020013373ffffffffffffffffffffffffffffffffffffffff16815250600260016002805490500381548110611a0057fe5b90600052602060002090600602016000820151816000019080519060200190611a2a929190613e4c565b506020820151816001019080519060200190611a47929190613e4c565b5060408201518160020160006101000a81548160ff021916908315150217905550606082015181600301556080820151816004015560a08201518160050160006101000a81548173ffffffffffffffffffffffffffffffffffffffff021916908373ffffffffffffffffffffffffffffffffffffffff160217905550905050600190505b92915050565b6003602052806000526040600020600091509050806000018054600181600116156101000203166002900480601f016020809104026020016040519081016040528092919081815260200182805460018160011615610100020316600290048015611b7d5780601f10611b5257610100808354040283529160200191611b7d565b820191906000526020600020905b815481529060010190602001808311611b6057829003601f168201915b5050505050908060010160009054906101000a900473ffffffffffffffffffffffffffffffffffffffff16908060020154908060030154908060040160009054906101000a900460ff1690806005018054600181600116156101000203166002900480601f016020809104026020016040519081016040528092919081815260200182805460018160011615610100020316600290048015611c605780601f10611c3557610100808354040283529160200191611c60565b820191906000526020600020905b815481529060010190602001808311611c4357829003601f168201915b5050505050905086565b6000801515611cc9600360003373ffffffffffffffffffffffffffffffffffffffff1673ffffffffffffffffffffffffffffffffffffffff16815260200190815260200160002060000160405180602001604052806000815250613cdb565b151514611d21576040517f08c379a00000000000000000000000000000000000000000000000000000000081526004018080602001828103825260448152602001806141636044913960600191505060405180910390fd5b600360008373ffffffffffffffffffffffffffffffffffffffff1673ffffffffffffffffffffffffffffffffffffffff168152602001908152602001600020600201549050919050565b6000801515611dca600360003373ffffffffffffffffffffffffffffffffffffffff1673ffffffffffffffffffffffffffffffffffffffff16815260200190815260200160002060000160405180602001604052806000815250613cdb565b151514611e22576040517f08c379a00000000000000000000000000000000000000000000000000000000081526004018080602001828103825260448152602001806141636044913960600191505060405180910390fd5b60008090505b600280549050811015611fb357611e5c60028281548110611e4557fe5b906000526020600020906006020160000184613cdb565b8015611ebb575060011515600360003373ffffffffffffffffffffffffffffffffffffffff1673ffffffffffffffffffffffffffffffffffffffff16815260200190815260200160002060040160009054906101000a900460ff161515145b15611fa85760028181548110611ecd57fe5b90600052602060002090600602016003016000815480929190600101919050555060028181548110611efb57fe5b90600052602060002090600602016003015460028281548110611f1a57fe5b9060005260206000209060060201600401541080611f615750600360015481611f3f57fe5b0460028281548110611f4d57fe5b906000526020600020906006020160030154115b15611f9e57600060028281548110611f7557fe5b906000526020600020906006020160020160006101000a81548160ff0219169083151502179055505b6001915050611fb9565b806001019050611e28565b50600090505b919050565b600080151561201d600360003373ffffffffffffffffffffffffffffffffffffffff1673ffffffffffffffffffffffffffffffffffffffff16815260200190815260200160002060000160405180602001604052806000815250613cdb565b151514612075576040517f08c379a00000000000000000000000000000000000000000000000000000000081526004018080602001828103825260448152602001806141636044913960600191505060405180910390fd5b6000600360003373ffffffffffffffffffffffffffffffffffffffff1673ffffffffffffffffffffffffffffffffffffffff16815260200190815260200160002060010160009054906101000a900473ffffffffffffffffffffffffffffffffffffffff1690506000600360008573ffffffffffffffffffffffffffffffffffffffff1673ffffffffffffffffffffffffffffffffffffffff16815260200190815260200160002060010160009054906101000a900473ffffffffffffffffffffffffffffffffffffffff169050600073ffffffffffffffffffffffffffffffffffffffff168173ffffffffffffffffffffffffffffffffffffffff1614806121a957508173ffffffffffffffffffffffffffffffffffffffff168173ffffffffffffffffffffffffffffffffffffffff16145b156121b957600192505050612303565b600073ffffffffffffffffffffffffffffffffffffffff168273ffffffffffffffffffffffffffffffffffffffff16146122fc57600360008273ffffffffffffffffffffffffffffffffffffffff1673ffffffffffffffffffffffffffffffffffffffff1681526020019081526020016000206002016000815480929190600101919050555060036001548161224b57fe5b04600360008373ffffffffffffffffffffffffffffffffffffffff1673ffffffffffffffffffffffffffffffffffffffff1681526020019081526020016000206002015411156122f1576000600360008373ffffffffffffffffffffffffffffffffffffffff1673ffffffffffffffffffffffffffffffffffffffff16815260200190815260200160002060040160006101000a81548160ff0219169083151502179055505b600092505050612303565b6001925050505b919050565b60003373ffffffffffffffffffffffffffffffffffffffff166000809054906101000a900473ffffffffffffffffffffffffffffffffffffffff1673ffffffffffffffffffffffffffffffffffffffff16146123af576040517f08c379a00000000000000000000000000000000000000000000000000000000081526004018080602001828103825260228152602001806141a76022913960400191505060405180910390fd5b600073ffffffffffffffffffffffffffffffffffffffff16600360008473ffffffffffffffffffffffffffffffffffffffff1673ffffffffffffffffffffffffffffffffffffffff16815260200190815260200160002060010160009054906101000a900473ffffffffffffffffffffffffffffffffffffffff1673ffffffffffffffffffffffffffffffffffffffff16146124fb57600360008373ffffffffffffffffffffffffffffffffffffffff1673ffffffffffffffffffffffffffffffffffffffff168152602001908152602001600020600080820160006124959190613ecc565b6001820160006101000a81549073ffffffffffffffffffffffffffffffffffffffff0219169055600282016000905560038201600090556004820160006101000a81549060ff02191690556005820160006124f09190613ecc565b505060019050612500565b600090505b919050565b6004818154811061251257fe5b9060005260206000209060030201600091509050806000018054600181600116156101000203166002900480601f0160208091040260200160405190810160405280929190818152602001828054600181600116156101000203166002900480156125be5780601f10612593576101008083540402835291602001916125be565b820191906000526020600020905b8154815290600101906020018083116125a157829003601f168201915b5050505050908060010160009054906101000a900473ffffffffffffffffffffffffffffffffffffffff1690806002018054600181600116156101000203166002900480601f0160208091040260200160405190810160405280929190818152602001828054600181600116156101000203166002900480156126825780601f1061265757610100808354040283529160200191612682565b820191906000526020600020905b81548152906001019060200180831161266557829003601f168201915b5050505050905083565b60008015156126eb600360003373ffffffffffffffffffffffffffffffffffffffff1673ffffffffffffffffffffffffffffffffffffffff16815260200190815260200160002060000160405180602001604052806000815250613cdb565b151514612743576040517f08c379a00000000000000000000000000000000000000000000000000000000081526004018080602001828103825260448152602001806141636044913960600191505060405180910390fd5b60008090505b6004805490508110156128f15761277d6004828154811061276657fe5b906000526020600020906003020160000185613cdb565b80156127ac57506127ab6004828154811061279457fe5b906000526020600020906003020160020184613cdb565b5b156128e65760006001820190505b6004805490508110156128c557600481815481106127d457fe5b9060005260206000209060030201600460018303815481106127f257fe5b906000526020600020906003020160008201816000019080546001816001161561010002031660029004612827929190613f14565b506001820160009054906101000a900473ffffffffffffffffffffffffffffffffffffffff168160010160006101000a81548173ffffffffffffffffffffffffffffffffffffffff021916908373ffffffffffffffffffffffffffffffffffffffff160217905550600282018160020190805460018160011615610100020316600290046128b6929190613f14565b509050508060010190506127ba565b5060048054809190600190036128db9190613f9b565b5060019150506128f7565b806001019050612749565b50600090505b92915050565b600080151561295c600360003373ffffffffffffffffffffffffffffffffffffffff1673ffffffffffffffffffffffffffffffffffffffff16815260200190815260200160002060000160405180602001604052806000815250613cdb565b1515146129b4576040517f08c379a00000000000000000000000000000000000000000000000000000000081526004018080602001828103825260448152602001806141636044913960600191505060405180910390fd5b60008090505b600280549050811015612be8576129ee600282815481106129d757fe5b906000526020600020906006020160000185613cdb565b8015612a1d5750612a1c60028281548110612a0557fe5b906000526020600020906006020160010184613cdb565b5b8015612a7f57506001600360003373ffffffffffffffffffffffffffffffffffffffff1673ffffffffffffffffffffffffffffffffffffffff16815260200190815260200160002060040160006101000a81548160ff02191690831515021790555b15612bdd5760048054809190600101612a989190613f9b565b506040518060600160405280858152602001600360003373ffffffffffffffffffffffffffffffffffffffff1673ffffffffffffffffffffffffffffffffffffffff16815260200190815260200160002060010160009054906101000a900473ffffffffffffffffffffffffffffffffffffffff1673ffffffffffffffffffffffffffffffffffffffff16815260200184815250600460016004805490500381548110612b4157fe5b90600052602060002090600302016000820151816000019080519060200190612b6b929190613e4c565b5060208201518160010160006101000a81548173ffffffffffffffffffffffffffffffffffffffff021916908373ffffffffffffffffffffffffffffffffffffffff1602179055506040820151816002019080519060200190612bcf929190613e4c565b509050506001915050612bee565b8060010190506129ba565b50600090505b92915050565b60003373ffffffffffffffffffffffffffffffffffffffff166000809054906101000a900473ffffffffffffffffffffffffffffffffffffffff1673ffffffffffffffffffffffffffffffffffffffff1614612c9b576040517f08c379a00000000000000000000000000000000000000000000000000000000081526004018080602001828103825260228152602001806141a76022913960400191505060405180910390fd5b600360008473ffffffffffffffffffffffffffffffffffffffff1673ffffffffffffffffffffffffffffffffffffffff16815260200190815260200160002060010160009054906101000a900473ffffffffffffffffffffffffffffffffffffffff1673ffffffffffffffffffffffffffffffffffffffff168373ffffffffffffffffffffffffffffffffffffffff161415612d3a5760009050612f59565b82600360008573ffffffffffffffffffffffffffffffffffffffff1673ffffffffffffffffffffffffffffffffffffffff16815260200190815260200160002060010160006101000a81548173ffffffffffffffffffffffffffffffffffffffff021916908373ffffffffffffffffffffffffffffffffffffffff16021790555083600360008573ffffffffffffffffffffffffffffffffffffffff1673ffffffffffffffffffffffffffffffffffffffff1681526020019081526020016000206000019080519060200190612e11929190613fcd565b5081600360008573ffffffffffffffffffffffffffffffffffffffff1673ffffffffffffffffffffffffffffffffffffffff1681526020019081526020016000206005019080519060200190612e68929190613fcd565b506000600360008573ffffffffffffffffffffffffffffffffffffffff1673ffffffffffffffffffffffffffffffffffffffff168152602001908152602001600020600301819055506000600360008573ffffffffffffffffffffffffffffffffffffffff1673ffffffffffffffffffffffffffffffffffffffff168152602001908152602001600020600201819055506001600360008573ffffffffffffffffffffffffffffffffffffffff1673ffffffffffffffffffffffffffffffffffffffff16815260200190815260200160002060040160006101000a81548160ff021916908315150217905550600190505b9392505050565b60003373ffffffffffffffffffffffffffffffffffffffff166000809054906101000a900473ffffffffffffffffffffffffffffffffffffffff1673ffffffffffffffffffffffffffffffffffffffff1614613007576040517f08c379a00000000000000000000000000000000000000000000000000000000081526004018080602001828103825260228152602001806141a76022913960400191505060405180910390fd5b600360008373ffffffffffffffffffffffffffffffffffffffff1673ffffffffffffffffffffffffffffffffffffffff16815260200190815260200160002060010160009054906101000a900473ffffffffffffffffffffffffffffffffffffffff1673ffffffffffffffffffffffffffffffffffffffff168273ffffffffffffffffffffffffffffffffffffffff16141561315057600360008373ffffffffffffffffffffffffffffffffffffffff1673ffffffffffffffffffffffffffffffffffffffff16815260200190815260200160002060040160009054906101000a900460ff1615600360008473ffffffffffffffffffffffffffffffffffffffff1673ffffffffffffffffffffffffffffffffffffffff16815260200190815260200160002060040160006101000a81548160ff02191690831515021790555060019050613155565b600090505b919050565b6002818154811061316757fe5b9060005260206000209060060201600091509050806000018054600181600116156101000203166002900480601f0160208091040260200160405190810160405280929190818152602001828054600181600116156101000203166002900480156132135780601f106131e857610100808354040283529160200191613213565b820191906000526020600020905b8154815290600101906020018083116131f657829003601f168201915b505050505090806001018054600181600116156101000203166002900480601f0160208091040260200160405190810160405280929190818152602001828054600181600116156101000203166002900480156132b15780601f10613286576101008083540402835291602001916132b1565b820191906000526020600020905b81548152906001019060200180831161329457829003601f168201915b5050505050908060020160009054906101000a900460ff16908060030154908060040154908060050160009054906101000a900473ffffffffffffffffffffffffffffffffffffffff16905086565b600080151561335f600360003373ffffffffffffffffffffffffffffffffffffffff1673ffffffffffffffffffffffffffffffffffffffff16815260200190815260200160002060000160405180602001604052806000815250613cdb565b1515146133b7576040517f08c379a00000000000000000000000000000000000000000000000000000000081526004018080602001828103825260448152602001806141636044913960600191505060405180910390fd5b60008090505b600280549050811015613435576133f1600282815481106133da57fe5b906000526020600020906006020160000184613cdb565b1561342a576002818154811061340357fe5b906000526020600020906006020160020160009054906101000a900460ff16915050613437565b8060010190506133bd565b505b919050565b600080151561349b600360003373ffffffffffffffffffffffffffffffffffffffff1673ffffffffffffffffffffffffffffffffffffffff16815260200190815260200160002060000160405180602001604052806000815250613cdb565b1515146134f3576040517f08c379a00000000000000000000000000000000000000000000000000000000081526004018080602001828103825260448152602001806141636044913960600191505060405180910390fd5b60008090505b6002805490508110156136855761352d6002828154811061351657fe5b906000526020600020906006020160000184613cdb565b801561358c575060011515600360003373ffffffffffffffffffffffffffffffffffffffff1673ffffffffffffffffffffffffffffffffffffffff16815260200190815260200160002060040160009054906101000a900460ff161515145b1561367a576002818154811061359e57fe5b906000526020600020906006020160040160008154809291906001019190505550600281815481106135cc57fe5b906000526020600020906006020160030154600282815481106135eb57fe5b906000526020600020906006020160040154118015613633575060036001548161361157fe5b046002828154811061361f57fe5b906000526020600020906006020160030154105b156136705760016002828154811061364757fe5b906000526020600020906006020160020160006101000a81548160ff0219169083151502179055505b600191505061368b565b8060010190506134f9565b50600090505b919050565b60008015156136ef600360003373ffffffffffffffffffffffffffffffffffffffff1673ffffffffffffffffffffffffffffffffffffffff16815260200190815260200160002060000160405180602001604052806000815250613cdb565b151514613747576040517f08c379a00000000000000000000000000000000000000000000000000000000081526004018080602001828103825260448152602001806141636044913960600191505060405180910390fd5b60008090505b6002805490508110156138b5576137816002828154811061376a57fe5b906000526020600020906006020160000185613cdb565b156138aa57826002828154811061379457fe5b906000526020600020906006020160010190805190602001906137b8929190613fcd565b5033600282815481106137c757fe5b906000526020600020906006020160050160006101000a81548173ffffffffffffffffffffffffffffffffffffffff021916908373ffffffffffffffffffffffffffffffffffffffff16021790555060006002828154811061382557fe5b906000526020600020906006020160020160006101000a81548160ff02191690831515021790555060006002828154811061385c57fe5b90600052602060002090600602016004018190555060006002828154811061388057fe5b90600052602060002090600602016003018190555061389f848461268c565b5060019150506138bb565b80600101905061374d565b50600090505b92915050565b6000801515613920600360003373ffffffffffffffffffffffffffffffffffffffff1673ffffffffffffffffffffffffffffffffffffffff16815260200190815260200160002060000160405180602001604052806000815250613cdb565b151514613978576040517f08c379a00000000000000000000000000000000000000000000000000000000081526004018080602001828103825260448152602001806141636044913960600191505060405180910390fd5b60008090505b600280549050811015613cd0576139b26002828154811061399b57fe5b906000526020600020906006020160000184613cdb565b8015613a895750600281815481106139c657fe5b906000526020600020906006020160050160009054906101000a900473ffffffffffffffffffffffffffffffffffffffff1673ffffffffffffffffffffffffffffffffffffffff16600360003373ffffffffffffffffffffffffffffffffffffffff1673ffffffffffffffffffffffffffffffffffffffff16815260200190815260200160002060010160009054906101000a900473ffffffffffffffffffffffffffffffffffffffff1673ffffffffffffffffffffffffffffffffffffffff16145b15613cc55760006001820190505b600280549050811015613be35760028181548110613ab157fe5b906000526020600020906006020160026001830381548110613acf57fe5b906000526020600020906006020160008201816000019080546001816001161561010002031660029004613b04929190613f14565b5060018201816001019080546001816001161561010002031660029004613b2c929190613f14565b506002820160009054906101000a900460ff168160020160006101000a81548160ff02191690831515021790555060038201548160030155600482015481600401556005820160009054906101000a900473ffffffffffffffffffffffffffffffffffffffff168160050160006101000a81548173ffffffffffffffffffffffffffffffffffffffff021916908373ffffffffffffffffffffffffffffffffffffffff160217905550905050806001019050613a97565b506002805480919060019003613bf99190613e1a565b50613cba8360028381548110613c0b57fe5b90600052602060002090600602016001018054600181600116156101000203166002900480601f016020809104026020016040519081016040528092919081815260200182805460018160011615610100020316600290048015613cb05780601f10613c8557610100808354040283529160200191613cb0565b820191906000526020600020905b815481529060010190602001808311613c9357829003601f168201915b505050505061268c565b506001915050613cd6565b80600101905061397e565b50600090505b919050565b600080839050606083905080518280546001816001161561010002031660029004905014613d0e57600092505050613e14565b60008090505b82805460018160011615610100020316600290049050811015613e0c57818181518110613d3d57fe5b602001015160f81c60f81b7effffffffffffffffffffffffffffffffffffffffffffffffffffffffffffff19168382815460018160011615610100020316600290048110613d8757fe5b815460011615613da65790600052602060002090602091828204019190065b9054901a7f0100000000000000000000000000000000000000000000000000000000000000027effffffffffffffffffffffffffffffffffffffffffffffffffffffffffffff191614613dff5760009350505050613e14565b8080600101915050613d14565b506001925050505b92915050565b815481835581811115613e4757600602816006028360005260206000209182019101613e46919061404d565b5b505050565b828054600181600116156101000203166002900490600052602060002090601f016020900481019282601f10613e8d57805160ff1916838001178555613ebb565b82800160010185558215613ebb579182015b82811115613eba578251825591602001919060010190613e9f565b5b509050613ec891906140d7565b5090565b50805460018160011615610100020316600290046000825580601f10613ef25750613f11565b601f016020900490600052602060002090810190613f1091906140d7565b5b50565b828054600181600116156101000203166002900490600052602060002090601f016020900481019282601f10613f4d5780548555613f8a565b82800160010185558215613f8a57600052602060002091601f016020900482015b82811115613f89578254825591600101919060010190613f6e565b5b509050613f9791906140d7565b5090565b815481835581811115613fc857600302816003028360005260206000209182019101613fc791906140fc565b5b505050565b828054600181600116156101000203166002900490600052602060002090601f016020900481019282601f1061400e57805160ff191683800117855561403c565b8280016001018555821561403c579182015b8281111561403b578251825591602001919060010190614020565b5b50905061404991906140d7565b5090565b6140d491905b808211156140d0576000808201600061406c9190613ecc565b60018201600061407c9190613ecc565b6002820160006101000a81549060ff0219169055600382016000905560048201600090556005820160006101000a81549073ffffffffffffffffffffffffffffffffffffffff021916905550600601614053565b5090565b90565b6140f991905b808211156140f55760008160009055506001016140dd565b5090565b90565b61415f91905b8082111561415b576000808201600061411b9190613ecc565b6001820160006101000a81549073ffffffffffffffffffffffffffffffffffffffff02191690556002820160006141529190613ecc565b50600301614102565b5090565b9056fe4f6e6c7920612062616e6b2063616e20706572666f726d207468697320616374696f6e2c2073656e646572206e6f7420616d6f6e67206578697374696e672062616e6b734f6e6c792061646d696e2063616e20706572666f726d207468697320616374696f6ea265627a7a723158200ccfd5b0ef08cb337b5eb4a9135366524d806074803968f87b9ee8f811acafa664736f6c63430005110032",
  "source": "  \npragma solidity ^0.5.17;\n\ncontract KYCContract {\n\n    //to store address of the user who deployed this smart contract\n    address adminAddress;\n    \n    //to maintain a count of number of banks\n    uint256 bankCount;\n\n    constructor() public {\n        adminAddress = msg.sender;\n        bankCount = 10;\n    }\n    //  Struct Customer\n    struct Customer { \n\t    string uname;       //  uname - username of the customer   \n\t    string dataHash;    //  dataHash - customer data\n\t    bool kycStatus;     //  kycStatus given to customer given based on KYC completion\n\t    uint256 downvotes;  //  downvotes - number of downvotes recieved from banks\n\t    uint256 upvotes;    //  upvotes - number of upvotes recieved from banks\n\t    address bank;       //  bank - address of bank that validated the customer account\n    }\n\n    //  Struct Organisation\n    struct Organisation {\n\t    string name;        //  name - name of the bank/organisation\n\t    address ethAddress; //  ethAddress - ethereum address of the bank/organisation\n\t    uint256 report;     //  report - number of reports against this bank done by other banks in the network\n\t    uint256 KYC_count;  //  KYC_count - number of KYCs verified by the bank/organisation\n\t    bool kycPermission; //  kycPermission  - status of bank\n\t    string regNumber;   //  regNumber - unique registration number for the bank\n    }\n\n    //  Struct Request\n    struct Request {\n\t    string uname;            //  uname - username of the customer\n\t    address bankAddress;     //  bank - address of bank that validated the customer account\n\t    string customerDataHash; //  dataHash - customer data\n    }\n\n    // list of all customers\n    Customer[] public allCustomers;\n\n    // list of all Banks/Organisations\n    mapping(address => Organisation) public allBanks;\n\n    // list of all requests\n    Request[] public allRequests;\n\n    //modifier to check if the user performing the action is admin\n    modifier onlyAdmin {\n        require(\n            adminAddress == msg.sender,\n            \"Only admin can perform this action\"\n        );\n        _;\n    }\n\n    //modifier to check if the user performing the action is among the list of banks\n    modifier onlyBank {\n        require(\n            stringsEqual(allBanks[msg.sender].name, \"\") == false,\n            \"Only a bank can perform this action, sender not among existing banks\"\n        );\n        _;\n    }\n\n    /*\n    function to add a bank to the blockchain\n    onlyAdmin modifier to check if user is admin\n    @param - name of bank,address of bank, registeration number of the bank\n    @returns - \"true\" if bank was added successfully and \"false\" if bank could not be added as it is already present\n    */\n    function addBank(\n        string memory name,\n        address bankAddress,\n        string memory bankRegNum\n    ) public payable onlyAdmin returns (bool) {\n        if (bankAddress == allBanks[bankAddress].ethAddress) {\n            return false;\n        } else {\n            allBanks[bankAddress].ethAddress = bankAddress;\n            allBanks[bankAddress].name = name;\n            allBanks[bankAddress].regNumber = bankRegNum;\n            allBanks[bankAddress].KYC_count = 0;\n            allBanks[bankAddress].report = 0;\n            allBanks[bankAddress].kycPermission = true;\n            return true; \n        }\n    }\n\n    /*\n    function to remove a bank from the list of banks\n    modifier onlyAdmin to check if user calling the function is admin\n    @param - storage address of the bank to be deleted from the list of banks\n    @returns - \"true\" if bank is removed from the list and \"false\" if bank is not present in the list already\n    */\n    function removeBank(address bankAddress)\n        public\n        payable\n        onlyAdmin\n        returns (bool)\n    {\n        if (allBanks[bankAddress].ethAddress != 0x0000000000000000000000000000000000000000) {\n            delete allBanks[bankAddress];\n            return true;\n        } else {\n            return false;\n        }\n    }   \n    \n    /*\n    function to change kycPermission status \n    modifier onlyAdmin to check if user calling the function is admin\n    @param - storage address of the bank to be deleted from the list of banks\n    @returns - \"true\" if bank status is changed and \"false\" if not \n    */\n    function modifyKycPermission(address bankAddress)\n        public\n        payable\n        onlyAdmin\n        returns (bool)\n    {\n        if (bankAddress == allBanks[bankAddress].ethAddress) {\n            allBanks[bankAddress].kycPermission = !allBanks[bankAddress].kycPermission;\n            return true;\n        } else {\n            return false; \n        }\n    }\n\n    // function to add request for KYC\n    // @Params - Username for the customer, bankAddress and customerDataHash\n    // Function is made payable as banks need to provide some currency to start of the KYC\n    //process\n    //returns 0 when REQUEST cannot be added and 1 when REQUEST is added successfully\n    function addRequest(string memory Uname, string memory customerDataHash)\n        public\n        payable\n        onlyBank\n        returns (uint256)\n    {\n        for (uint256 i = 0; i < allCustomers.length; ++i) {\n            if ((stringsEqual(allCustomers[i].uname, Uname)) \n            && (stringsEqual(allCustomers[i].dataHash, customerDataHash)) \n            && (allBanks[msg.sender].kycPermission = true)) {\n            allRequests.length++;\n            allRequests[allRequests.length - 1] = Request(\n                        Uname,\n                        allBanks[msg.sender].ethAddress,\n                        customerDataHash);\n            return 1;\n            }\n        }\n        return 0;\n    }\n\n    // function to remove request for KYC\n    // @Params - Username for the customer\n    // @return - This function returns 1 if removal is successful else this return 0 if the Username\n    //for the customer is not found\n    function removeRequest(string memory Uname, string memory customerDataHash)\n        public\n        payable\n        onlyBank\n        returns (int256)\n    {\n        \n        for (uint256 i = 0; i < allRequests.length; ++i) {\n            if (stringsEqual(allRequests[i].uname,Uname)&&stringsEqual(allRequests[i].customerDataHash,customerDataHash))\n            {   for (uint256 j = i + 1; j < allRequests.length; ++j) {\n                    allRequests[j - 1] = allRequests[j];\n                }\n                allRequests.length--;\n                return 1;\n            }\n        }\n        return 0;\n    }\n\n\n    // function to add a customer profile to the database\n    // @params - Username and the hash of data for the customer are passed as\n    //parameters\n    // returns 1 if successful\n    // returns 0 if unsuccessful\n    function addCustomer(string memory Uname, string memory DataHash)\n        public\n        payable\n        onlyBank\n        returns (int256)\n    {\n        for (uint256 i = 0; i < allCustomers.length; ++i) {\n            if (stringsEqual(allCustomers[i].uname, Uname) \n            && stringsEqual(allCustomers[i].dataHash, DataHash)) \n                return 0;\n            }\n        allCustomers.length++;\n        allCustomers[allCustomers.length - 1] = Customer(\n                    Uname,\n                    DataHash,\n                    false,\n                    0,\n                    0,\n                    msg.sender);\n        return 1;\n    }\n\n    // function to remove fraudulent customer profile from the database\n    // @params - customer's username is passed as parameter\n    // returns 1 if successful\n    // returns 0 if customer profile not in database\n    function removeCustomer(string memory Uname)\n        public\n        payable\n        onlyBank\n        returns (int256)\n    {\n        for (uint256 i = 0; i < allCustomers.length; ++i) {\n            if (stringsEqual(allCustomers[i].uname, Uname) \n                && (allBanks[msg.sender].ethAddress == allCustomers[i].bank)) {\n                for (uint256 j = i + 1; j < allCustomers.length; ++j) {\n                    allCustomers[j - 1] = allCustomers[j];\n                }\n                allCustomers.length--;\n                removeRequest(Uname, allCustomers[i].dataHash);\n                return 1;\n            }\n        }\n        return 0;\n    }\n\n    // function to modify a customer profile in database\n    // @params - Customer username and datahash are passed as Parameters\n    // returns 1 if successful\n    // returns 0 if customer profile not in database\n    function modifyCustomer(string memory Uname,string memory DataHash) \n    public payable onlyBank returns (uint256) {\n            for (uint256 i = 0; i < allCustomers.length; ++i) {\n                if (stringsEqual(allCustomers[i].uname, Uname)) {\n                    allCustomers[i].dataHash = DataHash;\n                    allCustomers[i].bank = msg.sender;\n                    allCustomers[i].kycStatus = false;\n                    allCustomers[i].upvotes = 0;\n                    allCustomers[i].downvotes = 0;\n                    removeRequest(Uname, DataHash);\n                    return 1;\n                }\n            }\n            return 0;\n    }\n\n    // function to return customer profile data\n    // @params - Customer username is passed as the Parameters\n    // @return - This function return the cutomer datahash if found, else this function returns an error\n    //string.\n    function viewCustomer(string memory Uname)\n        public\n        payable\n        onlyBank\n        returns (string memory)\n    {\n        for (uint256 i = 0; i < allCustomers.length; ++i) {\n            if (stringsEqual(allCustomers[i].uname, Uname)) {\n               return allCustomers[i].dataHash;\n            }\n        }\n        return \"Customer not found in database!\";\n    }\n\n\n    /*function to upvote a customer and update its status\n    Uname- its the customer name for whom upvote is done\n    @return- it returns 1 if successfull and 0 if failure\n    */\n    function upvoteCustomer(string memory Uname)\n        public\n        payable\n        onlyBank\n        returns (uint256)\n    {\n        for (uint256 j = 0; j < allCustomers.length; ++j) {\n            if (stringsEqual(allCustomers[j].uname, Uname) && \n            (allBanks[msg.sender].kycPermission == true)) {\n                allCustomers[j].upvotes++;\n                if ((allCustomers[j].upvotes > allCustomers[j].downvotes) && \n                   (allCustomers[j].downvotes < (bankCount / 3))) {\n                    allCustomers[j].kycStatus = true;\n                }\n                return 1;\n                }\n            }\n        return 0;\n    }\n\n     /*function to downvote a customer and update its status\n    Uname- its the customer name for whom upvote is done\n    @return- it returns 1 if successfull and 0 if failure\n    */\n    function downvoteCustomer(string memory Uname)\n        public\n        payable\n        onlyBank\n        returns (uint256)\n    {\n        for (uint256 j = 0; j < allCustomers.length; ++j) {\n            if (stringsEqual(allCustomers[j].uname, Uname) && \n            (allBanks[msg.sender].kycPermission == true)) {\n                allCustomers[j].downvotes++;\n                if ((allCustomers[j].upvotes < allCustomers[j].downvotes) ||\n                   (allCustomers[j].downvotes > (bankCount / 3))) {\n                    allCustomers[j].kycStatus = false;\n                }\n                return 1;\n                }\n            }\n        return 0;\n    }\n\n    /*\n    function to get Customer status\n    @param - username(Uname) of the customer to fetch rating\n    @returns - boolean value\n    */\n    function getCustomerStatus(string memory Uname)\n        public\n        view\n        onlyBank\n        returns (bool)\n    {\n        for (uint256 i = 0; i < allCustomers.length; ++i) {\n            if (stringsEqual(allCustomers[i].uname, Uname)) {\n                return allCustomers[i].kycStatus;\n            }\n        }\n    }\n    /*\n        function to upvote a bank by another bank\n        @param- bankAddress, address of the bank to upvoteBank\n        @return- \"0\" when upvote is successful and \"1\" when upvote is not possible if the bank has already voted or does not exist in the blockchain\n    */\n    function addBankReport(address bankAddress)\n        public\n        payable\n        onlyBank\n        returns (uint256)\n    {\n        address bank = allBanks[msg.sender].ethAddress;\n        address receiverBank = allBanks[bankAddress].ethAddress;\n        if (receiverBank == 0x0000000000000000000000000000000000000000 || receiverBank == bank) {\n            return 1;\n        }\n        if (bank != 0x0000000000000000000000000000000000000000) {\n            allBanks[receiverBank].report++;\n            if (allBanks[receiverBank].report > (bankCount / 3)) {\n                allBanks[receiverBank].kycPermission = false;\n            }\n            return 0;\n        }\n        return 1;\n    }\n    /*\n    function to get Bank getBankReport\n    @param - address of the bank as bankAddress\n    @returns -  rating of the bank\n    */\n    function getBankReport(address bankAddress)\n        public\n        view\n        onlyBank\n        returns (uint256)\n    {\n            return allBanks[bankAddress].report;\n    }\n\n    /*\n    event to display bank details\n    */\n    event bankDetails(\n        string name,\n        address ethAddress,\n        uint256 KYC_count,\n        string regNumber,\n        uint256 report\n    );\n\n    /*\n    function to get the bank details of a bank\n    @param - address of bank is passed\n    @returns - details of the bank whose address is passed\n    */\n    function getBankDetails(address bankAddress) public payable onlyBank {\n            emit bankDetails(\n                allBanks[bankAddress].name,\n                allBanks[bankAddress].ethAddress,\n                allBanks[bankAddress].KYC_count,\n                allBanks[bankAddress].regNumber,\n                allBanks[bankAddress].report\n            );\n    }\n    // function to compare two string value\n    // This is an internal fucntion to compare string values\n    // @Params - String a and String b are passed as Parameters\n    // @return - This function returns true if strings are matched and false if the strings are not\n    //matching\n    function stringsEqual(string storage _a, string memory _b)\n        internal\n        view\n        returns (bool)\n    {\n        bytes storage a = bytes(_a);\n        bytes memory b = bytes(_b);\n        if (a.length != b.length) return false;\n        // @todo unroll this loop\n        for (uint256 i = 0; i < a.length; i++) {\n            if (a[i] != b[i]) return false;\n        }\n        return true;\n    }\n\n}\n",
  "sourcePath": "/home/rahul/KYC-SC/contracts/KYC.sol",
  "compiler": {
    "name": "solc",
    "version": "0.5.17+commit.d19bba13.Emscripten.clang"
  },
  "schemaVersion": "3.3.4",
  "updatedAt": "2021-04-17T08:30:13.282Z",
  "devdoc": {
    "methods": {}
  },
  "userdoc": {
    "methods": {}
  }
}